:020000040000FA
:04000000F7EF0EF018
:10060000003F065B4F666D7D077F6F777C395E79B3
:1006100071554C445253584142597300000E396E83
:10062000000E3A6E000E3B6E000E3C6E000E356EF4
:10063000000E366E000E376E000E386E000E2F6EF6
:10064000000E306E000E316E000E326E000E2A6EFD
:10065000000E2B6E000E2C6E000E2D6E000E346EF2
:10066000100E336E010E2E6E000E256E6BEC0EF02A
:10067000FCEC0BF09DEC0DF010EC0EF0F6EC09F03C
:1006800089EF07F0000E266E000E276E000E286E12
:10069000000E296E2E50D8A450EF03F052EF03F055
:1006A00058EF03F0010E3926000E3A223B223C227D
:1006B000010E2626000E2722282229222950281042
:1006C000271009E1640E265CD8A069EF03F06BEFF8
:1006D00003F04AEF03F0000E106E000E0F6E000ED6
:1006E000126E000E116E4EEC0EF0180E126E000E11
:1006F000136E000E146E000E156E400E056E7E0E0B
:10070000066E050E076E000E086E39C001F03AC085
:1007100002F03BC003F03CC004F0AEEC0CF001C0B2
:100720000EF002C00FF003C010F004C011F000EC96
:100730000DF00EC01DF00FC01EF010C01FF011C054
:1007400020F01DC001F01EC002F01FC003F020C049
:1007500004F00A0E056E000E066E000E076E000E07
:10076000086EAEEC0CF00150300FE8EC0EF0180EF5
:10077000126E000E136E000E146E000E156E400EFB
:10078000056E7E0E066E050E076E000E086E39C0F1
:1007900001F03AC002F03BC003F03CC004F0AEEC04
:1007A0000CF001C00EF002C00FF003C010F004C046
:1007B00011F000EC0DF00EC021F00FC022F010C0BF
:1007C00023F011C024F021C00EF022C00FF023C08E
:1007D00010F024C011F00A0E126E000E136E000EFF
:1007E000146E000E156E00EC0DF00E50300FE8EC9C
:1007F0000EF03A0EE8EC0EF0600E056EEA0E066E94
:10080000000E076E000E086E39C001F03AC002F00B
:100810003BC003F03CC004F0AEEC0CF001C00EF0A5
:1008200002C00FF003C010F004C011F0060E126EEB
:10083000000E136E000E146E000E156E00EC0DF01F
:100840000E50300FE8EC0EF0700E056E170E066EAF
:10085000000E076E000E086E39C001F03AC002F0BB
:100860003BC003F03CC004F0AEEC0CF001C00EF055
:1008700002C00FF003C010F004C011F00A0E126E97
:10088000000E136E000E146E000E156E00EC0DF0CF
:100890000E50300FE8EC0EF03A0EE8EC0EF0E80ED9
:1008A000056E030E066E000E076E000E086E39C050
:1008B00001F03AC002F03BC003F03CC004F0AEECE3
:1008C0000CF001C00EF002C00FF003C010F004C025
:1008D00011F0060E126E000E136E000E146E000E56
:1008E000156E00EC0DF00E50300FE8EC0EF0640EBB
:1008F000056E000E066E000E076E000E086E39C003
:1009000001F03AC002F03BC003F03CC004F0AEEC92
:100910000CF001C00EF002C00FF003C010F004C0D4
:1009200011F00A0E126E000E136E000E146E000E01
:10093000156E00EC0DF00E50300FE8EC0EF0355057
:10094000361037103810D8B4A8EF04F0AAEF04F02E
:10095000DEEF05F0000E106E010E0F6E000E126E2F
:10096000000E116E4EEC0EF0180E126E000E136E8D
:10097000000E146E000E156E400E056E7E0E066E95
:10098000050E076E000E086E35C001F036C002F08D
:1009900037C003F038C004F0AEEC0CF001C00EF02C
:1009A00002C00FF003C010F004C011F000EC0DF015
:1009B0000EC01DF00FC01EF010C01FF011C020F0BF
:1009C0001DC001F01EC002F01FC003F020C004F0E3
:1009D0000A0E056E000E066E000E076E000E086E03
:1009E000AEEC0CF00150300FE8EC0EF0180E126E69
:1009F000000E136E000E146E000E156E400E056E86
:100A00007E0E066E050E076E000E086E35C001F0F4
:100A100036C002F037C003F038C004F0AEEC0CF082
:100A200001C00EF002C00FF003C010F004C011F0BE
:100A300000EC0DF00EC021F00FC022F010C023F02A
:100A400011C024F021C00EF022C00FF023C010F01E
:100A500024C011F00A0E126E000E136E000E146EFA
:100A6000000E156E00EC0DF00E50300FE8EC0EF09D
:100A70003A0EE8EC0EF0600E056EEA0E066E000E01
:100A8000076E000E086E35C001F036C002F037C0A8
:100A900003F038C004F0AEEC0CF001C00EF002C060
:100AA0000FF003C010F004C011F0060E126E000E1D
:100AB000136E000E146E000E156E00EC0DF00E504D
:100AC000300FE8EC0EF0700E056E170E066E000E7D
:100AD000076E000E086E35C001F036C002F037C058
:100AE00003F038C004F0AEEC0CF001C00EF002C010
:100AF0000FF003C010F004C011F00A0E126E000EC9
:100B0000136E000E146E000E156E00EC0DF00E50FC
:100B1000300FE8EC0EF03A0EE8EC0EF0E80E056E41
:100B2000030E066E000E076E000E086E35C001F053
:100B300036C002F037C003F038C004F0AEEC0CF061
:100B400001C00EF002C00FF003C010F004C011F09D
:100B5000060E126E000E136E000E146E000E156E51
:100B600000EC0DF00E50300FE8EC0EF0640E056E48
:100B7000000E066E000E076E000E086E35C001F006
:100B800036C002F037C003F038C004F0AEEC0CF011
:100B900001C00EF002C00FF003C010F004C011F04D
:100BA0000A0E126E000E136E000E146E000E156EFD
:100BB00000EC0DF00E50300FE8EC0EF061EC0BF095
:100BC000020E256E3EEF03F002EC0FF033500118D9
:100BD00009E134500218D8B4F0EF05F0F2EF05F057
:100BE000EFEF06F002EC0FF001C033F002C034F07A
:100BF00033A0FDEF05F0FFEF05F00DEF06F02E50EE
:100C0000D8A405EF06F007EF06F00BEF06F0010E93
:100C10002E6E0DEF06F0000E2E6E33A212EF06F0D0
:100C200014EF06F01EEF06F0000E396E000E3A6E5D
:100C3000000E3B6E000E3C6E010E2E6E33A423EFB1
:100C400006F025EF06F0BEEF06F039503A103B10E3
:100C50003C10D8B42EEF06F030EF06F0BEEF06F0F1
:100C600039C035F03AC036F03BC037F03CC038F000
:100C7000010E2F26000E30223122322286EF06F09E
:100C8000000E086E010E076E56EC0CF0010E2A26BF
:100C9000000E2B222C222D22BEEF06F0000E086E35
:100CA000020E076E56EC0CF046EF06F0000E086ED2
:100CB000040E076E56EC0CF046EF06F0000E086EC0
:100CC000030E076E56EC0CF046EF06F0000E086EB1
:100CD000060E076E56EC0CF046EF06F0000E086E9E
:100CE000050E076E56EC0CF0000E2A6E000E2B6EF1
:100CF000000E2C6E000E2D6EBEEF06F0000E086E7C
:100D0000070E076E56EC0CF074EF06F02AC019F0CF
:100D10002BC01AF02CC01BF02DC01CF01C50000A78
:100D2000D8B4B7EF06F07EEF06F01A50000AD8B438
:100D30009CEF06F07EEF06F01950010AD8B440EFA0
:100D400006F0030AD8B44EEF06F0010AD8B456EF05
:100D500006F0070AD8B45EEF06F0010AD8B466EFD1
:100D600006F0030AD8B46EEF06F07EEF06F01B50D3
:100D7000000AD8B495EF06F07EEF06F033A6C3EF75
:100D800006F0C5EF06F0EFEF06F0000E356E000E30
:100D9000366E000E376E000E386E000E106E010EAD
:100DA0000F6E000E126E000E116E4EEC0EF0200E45
:100DB000E8EC0EF0200EE8EC0EF0200EE8EC0EF061
:100DC000200EE8EC0EF0200EE8EC0EF0200EE8EC21
:100DD0000EF0200EE8EC0EF0200EE8EC0EF0030E04
:100DE000256E3EEF03F0000E176EE80E056E030E43
:100DF000066E000E076E000E086E2FC001F030C0A8
:100E000002F031C003F032C004F0AEEC0CF001C0CF
:100E10000EF002C00FF003C010F004C011F00A0E73
:100E2000126E000E136E000E146E000E156E00ECA6
:100E30000DF00E5071EC0DF0010E176E640E056E84
:100E4000000E066E000E076E000E086E2FC001F039
:100E500030C002F031C003F032C004F0AEEC0CF050
:100E600001C00EF002C00FF003C010F004C011F07A
:100E70000A0E126E000E136E000E146E000E156E2A
:100E800000EC0DF00E5071EC0DF0020E176E0A0E14
:100E9000056E000E066E000E076E000E086E2FC067
:100EA00001F030C002F031C003F032C004F0AEEC0B
:100EB0000CF001C00EF002C00FF003C010F004C02F
:100EC00011F00A0E126E000E136E000E146E000E5C
:100ED000156E00EC0DF00E5071EC0DF0030E176E58
:100EE0002FC00EF030C00FF031C010F032C011F042
:100EF0000A0E126E000E136E000E146E000E156EAA
:100F000000EC0DF00E5071EC0DF0000E256E3EEF72
:100F100003F02550196E1A6A1A50000AD8B493EFDC
:100F200007F085EF07F01950000AD8B442EF03F03C
:100F3000010AD8B4DEEF05F0030AD8B4E4EF05F0F7
:100F4000010AD8B4F3EF06F085EF07F000EF00F0E8
:100F500002BEB6EF07F0025007E1080E015CD8B000
:100F6000B4EF07F0B6EF07F0E0EF07F0035004101E
:100F7000D8B4BDEF07F0BFEF07F0CFEF07F001C027
:100F800005F0010E066E052AC8EF07F0D890063668
:100F9000052EC6EF07F006509212CEEF08F001C002
:100FA00005F0010E066E052AD8EF07F0D890063638
:100FB000052ED6EF07F00650FF0A9216CEEF08F086
:100FC00002BEEEEF07F0025007E1100E015CD8B050
:100FD000ECEF07F0EEEF07F01CEF08F00350041001
:100FE000D8B4F5EF07F0F7EF07F009EF08F001C00C
:100FF00005F0F80E0526010E066E052A02EF08F030
:10100000D8900636052E00EF08F006509312CEEF6A
:1010100008F001C005F0F80E0526010E066E052A3F
:1010200014EF08F0D8900636052E12EF08F006509F
:10103000FF0A9316CEEF08F002BE2AEF08F0025026
:1010400007E1180E015CD8B028EF08F02AEF08F08D
:1010500058EF08F003500410D8B431EF08F033EF24
:1010600008F045EF08F001C005F0F00E0526010E6E
:10107000066E052A3EEF08F0D8900636052E3CEFA6
:1010800008F006509412CEEF08F001C005F0F00E03
:101090000526010E066E052A50EF08F0D890063698
:1010A000052E4EEF08F00650FF0A9416CEEF08F01A
:1010B00002BE66EF08F0025007E1200E015CD8B0D6
:1010C00064EF08F066EF08F094EF08F003500410A6
:1010D000D8B46DEF08F06FEF08F081EF08F001C0B1
:1010E00005F0E80E0526010E066E052A7AEF08F0D7
:1010F000D8900636052E78EF08F006509512CEEF00
:1011000008F001C005F0E80E0526010E066E052A5E
:101110008CEF08F0D8900636052E8AEF08F00650BE
:10112000FF0A9516CEEF08F002BEA2EF08F00250BB
:1011300007E1280E015CD8B0A0EF08F0A2EF08F09C
:10114000CEEF08F003500410D8B4A9EF08F0ABEFCD
:1011500008F0BDEF08F001C005F0E00E0526010E15
:10116000066E052AB6EF08F0D8900636052EB4EFC5
:1011700008F006509612CEEF08F001C005F0E00E20
:101180000526010E066E052AC8EF08F0D89006362F
:10119000052EC6EF08F00650FF0A9616120002BE92
:1011A000DDEF08F0025007E1080E015CD8B0DBEF7C
:1011B00008F0DDEF08F007EF09F003500410D8B491
:1011C000E4EF08F0E6EF08F0F6EF08F001C005F0F4
:1011D000010E066E052AEFEF08F0D8900636052EB0
:1011E000EDEF08F006508012F5EF09F001C005F0B0
:1011F000010E066E052AFFEF08F0D8900636052E80
:10120000FDEF08F00650FF0A8016F5EF09F002BE68
:1012100015EF09F0025007E1100E015CD8B013EF92
:1012200009F015EF09F043EF09F0F80E0126FF0E63
:10123000022203500410D8B420EF09F022EF09F085
:1012400032EF09F001C005F0010E066E052A2BEF02
:1012500009F0D8900636052E29EF09F006508112C4
:10126000F5EF09F001C005F0010E066E052A3BEF0F
:1012700009F0D8900636052E39EF09F00650FF0A1E
:101280008116F5EF09F002BE51EF09F0025007E1B7
:10129000180E015CD8B04FEF09F051EF09F07FEF65
:1012A00009F0F00E0126FF0E022203500410D8B4FC
:1012B0005CEF09F05EEF09F06EEF09F001C005F098
:1012C000010E066E052A67EF09F0D8900636052E46
:1012D00065EF09F006508212F5EF09F001C005F044
:1012E000010E066E052A77EF09F0D8900636052E16
:1012F00075EF09F00650FF0A8216F5EF09F002BEFD
:101300008DEF09F0025007E1200E015CD8B08BEFA1
:1013100009F08DEF09F0BBEF09F0E80E0126FF0E92
:10132000022203500410D8B498EF09F09AEF09F0A4
:10133000AAEF09F001C005F0010E066E052AA3EF21
:1013400009F0D8900636052EA1EF09F00650831259
:10135000F5EF09F001C005F0010E066E052AB3EFA6
:1013600009F0D8900636052EB1EF09F00650FF0AB5
:101370008316F5EF09F002BEC9EF09F0025007E14C
:10138000280E015CD8B0C7EF09F0C9EF09F0F5EFFE
:1013900009F0E00E0126FF0E022203500410D8B41B
:1013A000D4EF09F0D6EF09F0E6EF09F001C005F03F
:1013B000010E066E052ADFEF09F0D8900636052EDD
:1013C000DDEF09F006508412F5EF09F001C005F0D9
:1013D000010E066E052AEFEF09F0D8900636052EAD
:1013E000EDEF09F00650FF0A84161200000E026E9F
:1013F000180E016E000E046E000E036ECFEC08F0A6
:10140000000E026E190E016E000E046E000E036EC9
:10141000CFEC08F0000E026E1A0E016E000E046E84
:10142000000E036ECFEC08F0000E026E1B0E016E74
:10143000000E046E000E036ECFEC08F0000E086E76
:10144000000E076EC8EC0DF08EEF0AF0010E462478
:10145000F66EF76A060EF7220800F550076E086A66
:10146000C8EC0DF0000E026E180E016E000E046E38
:10147000010E036ECFEC08F0010E476EABEF0AF0E1
:10148000010E4524F66EF76A060EF7220800F550A5
:10149000076E086AC8EC0DF0000E026E190E016EA0
:1014A000000E046E010E036ECFEC08F0020E476EC4
:1014B000ABEF0AF0010E4424F66EF76A060EF7222F
:1014C0000800F550076E086AC8EC0DF0000E026EB9
:1014D0001A0E016E000E046E010E036ECFEC08F0C2
:1014E000030E476EABEF0AF0010E4324F66EF76A67
:1014F000060EF7220800F550076E086AC8EC0DF0DA
:10150000000E026E1B0E016E000E046E010E036EC5
:10151000CFEC08F0000E476EABEF0AF047500A6EB2
:101520000B6A0B50000AD8B498EF0AF08AEF0AF061
:101530000A50000AD8B426EF0AF0010AD8B440EFE6
:101540000AF0030AD8B45AEF0AF0010AD8B474EFCB
:101550000AF08AEF0AF0120002BEBAEF0AF0025057
:1015600007E1080E015CD8B0B8EF0AF0BAEF0AF054
:10157000CEEF0AF001C003F0010E046E032AC3EFA0
:101580000AF0D8900436032EC1EF0AF004508014FC
:10159000056E0550016E026A60EF0BF002BEDCEFD3
:1015A0000AF0025007E1100E015CD8B0DAEF0AF041
:1015B000DCEF0AF0F2EF0AF001C003F0F80E0326A8
:1015C000010E046E032AE7EF0AF0D8900436032ECA
:1015D000E5EF0AF004508114056E0550016E026AB1
:1015E00060EF0BF002BE00EF0BF0025007E1180EA7
:1015F000015CD8B0FEEF0AF000EF0BF016EF0BF035
:1016000001C003F0F00E0326010E046E032A0BEF57
:101610000BF0D8900436032E09EF0BF0045082141F
:10162000056E0550016E026A60EF0BF002BE24EFFA
:101630000BF0025007E1200E015CD8B022EF0BF056
:1016400024EF0BF03AEF0BF001C003F0E80E032695
:10165000010E046E032A2FEF0BF0D8900436032EF0
:101660002DEF0BF004508314056E0550016E026AD5
:1016700060EF0BF002BE48EF0BF0025007E1280EBE
:10168000015CD8B046EF0BF048EF0BF05EEF0BF0CB
:1016900001C003F0E00E0326010E046E032A53EF8F
:1016A0000BF0D8900436032E51EF0BF00450841445
:1016B000056E0550016E026A60EF0BF0016802686A
:1016C0001200000E406E000E3F6E000E0E6E000EF9
:1016D0000D6E0EBE75EF0BF00E5009E1050E0D5CA0
:1016E000D8A075EF0BF077EF0BF079EF0BF0DAEF96
:1016F0000BF00DC00AF0030E0A26010E0B6E000E51
:101700000C6E0A2A87EF0BF0D8900B360C360A2E97
:1017100084EF0BF00BC007F00CC008F0C8EC0DF024
:10172000000E026E0A0E016EACEC0AF001500210BF
:10173000D8B49DEF0BF09FEF0BF0B2EF0BF00DC0A4
:101740000AF0010E0B6E000E0C6E0A2AABEF0BF0C6
:10175000D8900B360C360A2EA8EF0BF00B503F1228
:101760000C504012000E026E090E016EACEC0AF035
:1017700001500210D8B4BFEF0BF0C1EF0BF0D6EF61
:101780000BF00DC00AF0050E0A26010E0B6E000EBE
:101790000C6E0A2ACFEF0BF0D8900B360C360A2EBF
:1017A000CCEF0BF00B503F120C5040120D4A0E2A9A
:1017B00069EF0BF03F503D1807E140503E18D8A4A8
:1017C000E4EF0BF0E6EF0BF0E9EF0BF04806EFEF7C
:1017D0000BF0010E486E3FC03DF040C03EF0485057
:1017E000D8A4F5EF0BF0F7EF0BF0FBEF0BF03DC0DB
:1017F00041F03EC042F01200000E026E1C0E016E5F
:10180000000E046E000E036EA8EC07F0000E026ED0
:101810001D0E016E000E046E000E036EA8EC07F0A4
:101820002FEC0EF0000E026E0F0E016E84EC0EF027
:10183000000E0B6E000E0A6E030EC6EC0EF0000ECC
:10184000026E050E016E84EC0EF0000E0B6E000EA3
:101850000A6E030EC6EC0EF0000E026EA00E016EB4
:1018600007EC0FF0000E0B6E000E0A6E030EC6ECB6
:101870000EF0000E026EA00E016E07EC0FF0000ECF
:101880000B6E000E0A6E020EC6EC0EF0000E026E1B
:101890000A0E016E84EC0EF0280ED9EC0EF00C0E40
:1018A000D9EC0EF0010ED9EC0EF0120007A05BEFA0
:1018B0000CF05DEF0CF069EF0CF0000E026E180EEC
:1018C000016E000E046E010E036ECFEC08F073EF94
:1018D0000CF0000E026E180E016E000E046E000E6B
:1018E000036ECFEC08F007A278EF0CF07AEF0CF063
:1018F00086EF0CF0000E026E190E016E000E046EE3
:10190000010E036ECFEC08F090EF0CF0000E026EAB
:10191000190E016E000E046E000E036ECFEC08F07F
:1019200007A495EF0CF097EF0CF0A3EF0CF0000E6E
:10193000026E1A0E016E000E046E010E036ECFECE5
:1019400008F0ADEF0CF0000E026E1A0E016E000EE4
:10195000046E000E036ECFEC08F01200000E096E4C
:10196000000E0A6E000E0B6E000E0C6E0550061077
:1019700007100810D8B4BFEF0CF0C1EF0CF0F7EF70
:101980000CF0010E0D6ECBEF0CF0D890053606363C
:10199000073608360D2A08AED0EF0CF0D2EF0CF067
:1019A000C5EF0CF0D89009360A360B360C360550C8
:1019B000015C065002580750035808500458D8A03C
:1019C000E4EF0CF0E6EF0CF0EFEF0CF00550015EE9
:1019D0000650025A0750035A0850045A0980D890FA
:1019E00008320732063205320D2ED2EF0CF009C054
:1019F00001F00AC002F00BC003F00CC004F01200AA
:101A00001250131014101510D8B409EF0DF00BEF8D
:101A10000DF03BEF0DF0010E166E15EF0DF0D890A6
:101A20001236133614361536162A15AE1AEF0DF087
:101A30001CEF0DF00FEF0DF012500E5C13500F580D
:101A40001450105815501158D8A029EF0DF02BEF55
:101A50000DF033EF0DF012500E5E13500F5A14506C
:101A6000105A1550115AD8901532143213321232BE
:101A7000162E1CEF0DF00EC00EF00FC00FF010C0B0
:101A800010F011C011F012000D6E0DC00CF00C3AE8
:101A90000F0E0C160C50076E086AC8EC0DF0000E05
:101AA000026E1D0E016E0AC003F00BC004F0CFECF5
:101AB00008F0EFEC0DF00DC00CF00F0E0C160C50F2
:101AC000076E086AC8EC0DF0000E026E1D0E016E66
:101AD0000AC003F00BC004F0CFEC08F0EFEC0DF0FF
:101AE0001200186E1750D8A478EF0DF07AEF0DF0B1
:101AF0007CEF0DF018C046F01704D8A482EF0DF06B
:101B000084EF0DF086EF0DF018C045F0020E1718A7
:101B1000D8A48DEF0DF08FEF0DF091EF0DF018C000
:101B200044F0030E1718D8A498EF0DF09AEF0DF0BB
:101B30009CEF0DF018C043F01200000E026E180E5C
:101B4000016E000E046E000E036EA8EC07F0000E8E
:101B5000026E190E016E000E046E000E036EA8ECEC
:101B600007F0000E026E1A0E016E000E046E000EDB
:101B7000036EA8EC07F0000E026E1B0E016E000E45
:101B8000046E000E036EA8EC07F02FEC0EF01200AE
:101B9000000E026E080E016E000E046E000E036E43
:101BA000CFEC08F0000E096E000E026E1E0E016EE4
:101BB000800E0714036E046ACFEC08F0B1EC0EF04F
:101BC000D89007360836092A070E0964EAEF0DF0A7
:101BD000ECEF0DF0D4EF0DF09CEC0EF01200000EC7
:101BE000026E1C0E016E000E046E010E036ECFEC31
:101BF00008F0000E026E050E016E07EC0FF0000EED
:101C0000026E1C0E016E000E046E000E036ECFEC11
:101C100008F0000E026E050E016E07EC0FF01200C8
:101C2000000E026E180E016E000E046E000E036EA2
:101C3000A8EC07F0000E026E190E016E000E046E85
:101C4000000E036EA8EC07F0000E026E1A0E016E75
:101C5000000E046E000E036EA8EC07F01200000EDA
:101C6000026E1F0E016E000E046E000E036EA8ECD5
:101C700007F0000E026E080E016E000E046E000EDC
:101C8000036EA8EC07F0000E026E1E0E016E000E31
:101C9000046E000E036EA8EC07F012000F50101037
:101CA000D8A455EF0EF057EF0EF05CEF0EF0115088
:101CB0000F0B800FD9EC0EF00F041010D8A463EFB7
:101CC0000EF065EF0EF06AEF0EF011500F0BC00F23
:101CD000D9EC0EF012002FEC0EF0000E026E0A0E80
:101CE000016E000E046E010E036EA8EC07F0000EEC
:101CF000026E090E016E000E046E010E036EA8EC5A
:101D000007F00C0EC16E1200000E056E000E046E80
:101D10008CEF0EF0044A052A0150045C0550800A3D
:101D2000036E0250800A0358D8A099EF0EF09BEF83
:101D30000EF08AEF0EF01200000E026E1F0E016E02
:101D4000000E046E010E036ECFEC08F0000E026E62
:101D50001F0E016E000E046E000E036ECFEC08F035
:101D60001200000E026E080E016E000E046E010ECF
:101D7000036ECFEC08F0000E026E080E016E000E2E
:101D8000046E000E036ECFEC08F012000C6E0CC057
:101D900007F0086AC8EC0DF0000E026E1D0E016E11
:101DA0000AC003F00BC004F0CFEC08F0EFEC0DF02C
:101DB00012000E6E000E0B6E000E0A6E0E5044ECFA
:101DC0000DF0000E026E020E016E84EC0EF0120099
:101DD0000E6E000E0B6E010E0A6E0E5044EC0DF0EE
:101DE000000E026E500E016E07EC0FF0120000EEB6
:101DF0003DF00D0EEE6AE806FDE1000EF86E000102
:101E00000EEF03F041C001F042C002F012001200D8
:020000040020DA
:08000000FFFFFFFFFFFFFFFF00
:020000040030CA
:0E000000FF027100FF8380FF0FC00FE00F4072
:00000001FF
